{
  "contractName": "NumberPlay",
  "abi": [
    {
      "constant": true,
      "inputs": [],
      "name": "currentVal",
      "outputs": [
        {
          "name": "",
          "type": "uint256"
        }
      ],
      "payable": false,
      "stateMutability": "view",
      "type": "function",
      "signature": "0x47fdd98a"
    },
    {
      "inputs": [],
      "payable": false,
      "stateMutability": "nonpayable",
      "type": "constructor",
      "signature": "constructor"
    },
    {
      "payable": true,
      "stateMutability": "payable",
      "type": "fallback"
    },
    {
      "anonymous": false,
      "inputs": [
        {
          "indexed": false,
          "name": "value",
          "type": "uint256"
        }
      ],
      "name": "Bigger",
      "type": "event",
      "signature": "0x769dc58b3b9696dea2b780f0fc31bb2ad91545c8e6600e916d5f3d544ff77b66"
    },
    {
      "anonymous": false,
      "inputs": [
        {
          "indexed": false,
          "name": "value",
          "type": "uint256"
        }
      ],
      "name": "Smaller",
      "type": "event",
      "signature": "0x8fd08050ebe26712bd48a9f8b4ad86b14f146d9e238b536533b57fe5cc78e38a"
    },
    {
      "constant": false,
      "inputs": [
        {
          "name": "newVal",
          "type": "uint256"
        }
      ],
      "name": "maximum",
      "outputs": [],
      "payable": false,
      "stateMutability": "nonpayable",
      "type": "function",
      "signature": "0x1ef2e366"
    },
    {
      "constant": false,
      "inputs": [
        {
          "name": "newVal",
          "type": "uint256"
        }
      ],
      "name": "minimum",
      "outputs": [],
      "payable": false,
      "stateMutability": "nonpayable",
      "type": "function",
      "signature": "0xd79c3909"
    }
  ],
  "bytecode": "0x608060405234801561001057600080fd5b506101fc806100206000396000f3006080604052600436106100565763ffffffff7c01000000000000000000000000000000000000000000000000000000006000350416631ef2e36681146100bd57806347fdd98a146100d7578063d79c3909146100fe575b604080517f08c379a000000000000000000000000000000000000000000000000000000000815260206004820152601960248201527f496e76616c69642063616c6c20746f20636f6e74726163742e00000000000000604482015290519081900360640190fd5b3480156100c957600080fd5b506100d5600435610116565b005b3480156100e357600080fd5b506100ec61015c565b60408051918252519081900360200190f35b34801561010a57600080fd5b506100d5600435610162565b610122600054826101a8565b600081905560408051918252517f769dc58b3b9696dea2b780f0fc31bb2ad91545c8e6600e916d5f3d544ff77b669181900360200190a150565b60005481565b61016e600054826101c1565b600081905560408051918252517f8fd08050ebe26712bd48a9f8b4ad86b14f146d9e238b536533b57fe5cc78e38a9181900360200190a150565b6000818310156101b857816101ba565b825b9392505050565b60008183106101b857816101ba5600a165627a7a72305820fa5cb41eff3f9f3eb1d31bdd3b0f46b32f3c212a9bf130a296c847901e1b54650029",
  "source": "pragma solidity ^0.4.0;\nimport \"openzeppelin-solidity/contracts/math/Math.sol\";\n\ncontract NumberPlay {\n\n    /* Current value. */\n    uint256 public currentVal;\n\n    /* Event indicating current value got bigger. */\n    event Bigger(uint256 value);\n\n    /* Event indicating current value got smaller. */\n    event Smaller(uint256 value);\n\n    /* Constructor. */\n    constructor() public {\n    }\n\n    /* Fallback function. Added so ether sent to this contract is reverted. */\n    function() public payable {\n        revert(\"Invalid call to contract.\");\n    }\n\n    /// @notice Updates stored value to maximum betweem current and new value \n    /// @param newVal New value to use in maximum\n    function maximum(uint256 newVal) public {\n        currentVal = Math.max(currentVal, newVal);\n        emit Bigger(currentVal);\n    }\n\n    /// @notice Updates stored value to minimum betweem current and new value \n    /// @param newVal New value to use in minimum\n    function minimum(uint256 newVal) public {\n        currentVal = Math.min(currentVal, newVal);\n        emit Smaller(currentVal);\n    }\n}\n",
  "sourcePath": "/Users/justinhamilton/ethereum/worldgame/contracts/NumberPlay.sol",
  "compiler": {
    "name": "solc",
    "version": "0.4.24+commit.e67f0147.Emscripten.clang"
  },
  "schemaVersion": "3.0.0-beta.0",
  "updatedAt": "2018-08-27T04:33:06.638Z"
}