{
  "contractName": "SimpleStorage",
  "abi": [
    {
      "constant": true,
      "inputs": [],
      "name": "storedData",
      "outputs": [
        {
          "name": "",
          "type": "uint256"
        }
      ],
      "payable": false,
      "stateMutability": "view",
      "type": "function",
      "signature": "0x2a1afcd9"
    },
    {
      "anonymous": false,
      "inputs": [
        {
          "indexed": false,
          "name": "_message",
          "type": "string"
        }
      ],
      "name": "StorageSet",
      "type": "event",
      "signature": "0x60cdc157ca4737a5d39a0e107532616e7bf6946e615228812c7f9bc9f81797a6"
    },
    {
      "constant": false,
      "inputs": [
        {
          "name": "x",
          "type": "uint256"
        }
      ],
      "name": "set",
      "outputs": [],
      "payable": false,
      "stateMutability": "nonpayable",
      "type": "function",
      "signature": "0x60fe47b1"
    }
  ],
  "bytecode": "0x608060405234801561001057600080fd5b50610122806100206000396000f30060806040526004361060485763ffffffff7c01000000000000000000000000000000000000000000000000000000006000350416632a1afcd98114604d57806360fe47b1146071575b600080fd5b348015605857600080fd5b50605f6088565b60408051918252519081900360200190f35b348015607c57600080fd5b506086600435608e565b005b60005481565b60008190556040805160208082526019908201527f446174612073746f726564207375636365737366756c6c7921000000000000008183015290517f60cdc157ca4737a5d39a0e107532616e7bf6946e615228812c7f9bc9f81797a69181900360600190a1505600a165627a7a72305820ba16d1d2b379b98513eb8b3a4f3c158682c203cedecdae8bd2de9f029c76638d0029",
  "source": "pragma solidity ^0.4.18;\n\ncontract SimpleStorage {\n  event StorageSet(\n    string _message\n  );\n\n  uint public storedData;\n\n  function set(uint x) public {\n    storedData = x;\n\n    emit StorageSet(\"Data stored successfully!\");\n  }\n}\n",
  "sourcePath": "/Users/justinhamilton/ethereum/worldgame/contracts/SimpleStorage.sol",
  "compiler": {
    "name": "solc",
    "version": "0.4.24+commit.e67f0147.Emscripten.clang"
  },
  "schemaVersion": "3.0.0-beta.0",
  "updatedAt": "2018-08-21T22:44:16.355Z"
}